:100000004EC0000069C0000067C0000065C000006D
:1000100063C0000061C000005FC000005DC0000060
:100020005BC0000059C0000057C0000055C0000070
:1000300053C00000DFC000004FC000004DC00000F2
:100040004BC0000049C0000047C0000045C0000090
:1000500043C0000041C000003FC000003DC00000A0
:100060003BC0000039C0000037C0000035C00000B0
:1000700033C0000031C000002FC000002DC00000C0
:100080002BC0000029C0000027C000008F02B10271
:10009000D102DF02860398036303400306031124A1
:1000A0001FBECFEFD0E4DEBFCDBF11E0A0E0B1E0D6
:1000B000E2E0FCE000E00BBF02C007900D92A03E22
:1000C000B107D9F722E0A0EEB1E001C01D92A53042
:1000D000B207E1F7E6D393C593CF181619065CF083
:1000E0000895000021503109E1F74F5F5F4F8417F9
:1000F000950719F4089540E050E027E033E0F1CF90
:100100005E9888B95F9A00005F9882E090E0E5CF42
:10011000089581E0F5CF0895813118F48158F0CF2A
:1001200008958155EDCF089584E690E0D6DF88E309
:10013000E7DF86E0E5DF8FE0E3DF81E0E1DF8AE013
:1001400090E0CBCF08955E9A88B95F9A00005F98DF
:1001500081E090E0C2CF08950F931F93CF93DF9378
:10016000182FEB01D6DF8881882351F001E0010FC1
:10017000812FD2DF8991E7DF102F88818111F6CF9F
:10018000DF91CF911F910F910895609300017093BB
:10019000010180930201909303016093F301709336
:1001A000F4018093F5019093F60108958BE080931C
:1001B00081008DE790E0909389008093880082E031
:1001C00080936F001092850010928400809100014E
:1001D00090910101A0910201B09103018093F3017C
:1001E0009093F401A093F501B093F6018FB7806866
:1001F0008FBF08951F920F920FB60F9211248F9305
:100200009F93AF93BF938091F3019091F401A091DC
:10021000F501B091F6010197A109B1098093F301AD
:100220009093F401A093F501B093F601892B8A2BEA
:100230008B2B99F481E08093F701809100019091DC
:100240000101A0910201B09103018093F301909309
:10025000F401A093F501B093F601BF91AF919F9186
:100260008F910F900FBE0F901F901895FC019081F9
:1002700080E8989F900111249227292F2295269596
:1002800027709227892F880F880F880F89278083EE
:1002900008958BEF91E0EACF0895FBDF837091E042
:1002A00001C0990F8A95EAF7892F0895CF92DF92BE
:1002B000EF92FF926B017C019B01AC016091E00128
:1002C0007091E1018091E2019091E30116D38823BE
:1002D00009F452C020E030E0A901C701B6010DD3F6
:1002E000811106C0E1E9F0E080818870808305C05B
:1002F000E1E9F0E080818360808328E539E344E729
:100300005FE3C701B601F9D288233CF48FEF9FEF7A
:10031000909399008093980023C020E034E244EF4A
:1003200056E4C701B601FBD318162CF410929900BD
:100330001092980015C020E030E040E053E4C7017F
:10034000B601F1D39B01AC0160E074E284EF9AE462
:10035000D8D23FD36150710970939900609398008F
:100360001092950010929400C092E001D092E101A9
:10037000E092E201F092E301FF90EF90DF90CF90E6
:10038000089580E4809390008BE08093910060E07A
:1003900070E0CB018BCF0895813031F464EA70EDC9
:1003A00082E893E483CF0895823031F46BE774EDF3
:1003B00082E993E47BCF0895843031F464EA70EDF0
:1003C00084EA93E473CF0895883031F461E77DE9DE
:1003D0008EEA93E46BCF089560E070E0CB0166CFC6
:1003E000089580E480937C0087E880937A000895E4
:1003F000ECE7F0E09081987F8770892B8083EAE7B3
:10040000F0E0808180648083808186FDFDCF8091D3
:100410007800909179000895CF93DF9380E0E8DF32
:10042000EC0181E0E5DFC436D10538F481E090E0ED
:10043000909300028093FF0136C0C53823E0D207B5
:1004400038F082E090E09093F9018093F8012BC09E
:100450008436910538F483E090E09093FD01809319
:10046000FC0121C0853823E0920738F084E090E059
:100470009093F2018093F10116C0CD31D24098F0F3
:100480008331924080F0109200021092FF0110928E
:10049000F9011092F8011092FD011092FC011092E6
:1004A000F2011092F101DF91CF9108958091FF0147
:1004B00090910002817099279093F0018093EF0151
:1004C0008091F801869581708093EB011092EC0188
:1004D0008091FC019091FD018370992721E030E02B
:1004E000039711F020E030E03093EE012093ED010E
:1004F0008091F10182FB882780F98093E9011092B5
:10050000EA010895CF93E091FA018E2F90E08930AF
:10051000910508F034C1FC01EA5BFF4F67C380918D
:10052000EF019091F001892B99F48091ED01909168
:10053000EE01892B69F48091EB019091EC01892BFC
:1005400039F48091E9019091EA01892B09F42AC1DB
:1005500081E08093FA01DDDD64E071E081E0FCDDA3
:1005600011C18091EF019091F001892B09F01DC11B
:100570008091ED019091EE01892B09F016C18091D7
:10058000EB019091EC01892B09F00FC18091E901F9
:100590009091EA01892B09F008C182E08093FA0169
:1005A0000DC183E08093FA01B4DD64E271E081E083
:1005B000D3DD8091E70190E08F96C5DDE3C08091A7
:1005C000E6019091E701891788F084E08093FA01B1
:1005D0001092E60115B89DDD6FE371E081E0BCDDAE
:1005E0008091E70190E08F96AEDDCCC09091E40160
:1005F000933030F08F5F8093E6011092E401FAC0EF
:100600009F5F9093E401E091E601FBC015B88091F3
:10061000EF019091F001892B91F48091ED0190917F
:10062000EE01892B61F48091EB019091EC01892B13
:1006300031F48091E9019091EA01892B71F088E011
:100640008093FA0166DD6BE571E081E085DD8091E4
:10065000E70190E0C09677DD95C08091E501843098
:1006600030F41092E50182E08093FA01A7C087E0A0
:100670008093FA014EDD65E771E081E06DDD82C0B7
:100680008091EF019091F001892B99F48091ED0117
:100690009091EE01892B69F48091EB019091EC012E
:1006A000892B39F48091E9019091EA01892B09F4B1
:1006B000F6C01092FA012DDD64E971E081E04CDDB5
:1006C00080E06ADE5FC08091EF019091F001892B9C
:1006D00099F48091ED019091EE01892B69F480915C
:1006E000EB019091EC01892B39F48091E901909113
:1006F000EA01892B09F4D3C01092FA010ADD64E9FA
:1007000071E081E029DD80E047DE3CC080E044DE2E
:100710009091E5018091E701981720F088E080939F
:10072000FA01BDC084E08093FA0180E035DE2AC082
:100730008091EF019091F001892B09F0B0C0809178
:10074000ED019091EE01892B09F0A9C08091EB0198
:100750009091EC01892B09F0A2C08091E901909160
:10076000EA01892B09F09BC08091E5018F5F80939E
:10077000E50184E08093FA0180E00EDE03C0109270
:10078000FA0110C08091FA018230C1F028F4882368
:1007900049F0813051F083C0833061F1843009F435
:1007A0003EC07DC080E0F8DD7AC01092E801109272
:1007B000E6011092E7011092E50171C015B8C091F1
:1007C000E801C43088F469DDEC2FF0E0EF5FFD4F05
:1007D00080838091E8018F5F8093E8018091E70139
:1007E0008F5F8093E7015BC087E08093FA0180E030
:1007F000D3DD55C0E091E6018091E701E81708F0EC
:100800004EC0F0E0EF5FFD4F8081880F85B9E09129
:10081000E601F0E0EF5FFD4F8081BEDD40C08091DA
:10082000ED019091EE019C01220F331F8091EB01AD
:100830009091EC01880F991F880F991F822B2091AE
:10084000EF01282B8091E9019091EA01880F991F0F
:10085000880F991F880F991F822B8093FE01880FA4
:1008600085B98091FE0198DD8091FE018823B9F061
:10087000E091E501F0E0EF5FFD4F9081891304C046
:1008800085E08093FA010BC086E08093FA0180E056
:1008900083DD3FDC63EB71E081E05EDC15B8CF9176
:1008A000089511B88FEF82B984B915B887B918B80F
:1008B0008AB91BB839DC65DD81E08093FB0168EC07
:1008C00070E080E090E061DC71DC1092FA0121DCE4
:1008D0006FEB71E081E040DC60E070E0CB01E6DCD2
:1008E00080E01ADC99DD7DDDE1DD0CDE8091F70131
:1008F0008823E1F31092F701F3CF9CD008F481E054
:1009000008950CD0D2C0CAD040F0C1D030F021F44C
:100910005F3F19F0B3C05111FCC0B6C0D7D098F3F7
:100920009923C9F35523B1F3951B550BBB27AA2770
:1009300062177307840738F09F5F5F4F220F331FE2
:10094000441FAA1FA9F333D00E2E3AF0E0E830D0AE
:1009500091505040E695001CCAF729D0FE2F27D0B1
:10096000660F771F881FBB1F261737074807AB077F
:10097000B0E809F0BB0B802DBF01FF2793585F4FF4
:100980002AF09E3F510568F079C0C3C05F3FECF389
:10099000983EDCF3869577956795B795F7959F5FB9
:1009A000C9F7880F911D9695879597F90895E1E00D
:1009B000660F771F881FBB1F621773078407BA076C
:1009C00020F0621B730B840BBA0BEE1F88F7E095C7
:1009D000089504D06894B1119CC008957FD088F028
:1009E0009F5790F0B92F9927B751A0F0D1F0660F1B
:1009F000771F881F991F1AF0BA95C9F712C0B13036
:100A000081F086D0B1E0089583C0672F782F8827C2
:100A1000B85F39F0B93FCCF3869577956795B39574
:100A2000D9F73EF490958095709561957F4F8F4FE3
:100A30009F4F0895990F0008550FAA0BE0E8FEEFAD
:100A400016161706E807F907C0F012161306E40792
:100A5000F50798F0621B730B840B950B39F40A268B
:100A600061F0232B242B252B21F408950A2609F469
:100A7000A140A6958FEF811D811D089597F99F676D
:100A800080E870E060E008959FEF80EC0895002416
:100A90000A941616170618060906089500240A94E3
:100AA00012161306140605060895092E0394000C69
:100AB00011F4882352F0BB0F40F4BF2B11F460FFF8
:100AC00004C06F5F7F4F8F4F9F4F089557FD905821
:100AD000440F551F59F05F3F71F04795880F97FB02
:100AE000991F61F09F3F79F08795089512161306BC
:100AF0001406551FF2CF4695F1DF08C016161706EB
:100B00001806991FF1CF869571056105089408951F
:100B1000E894BB2766277727CB0197F908958ADFEA
:100B200008F48FEF08950BD0C0CFB1DF28F0B6DF07
:100B300018F0952309F0A2CFA7CF1124EACFC6DF82
:100B4000A0F3959FD1F3950F50E0551F629FF001E0
:100B5000729FBB27F00DB11D639FAA27F00DB11D39
:100B6000AA1F649F6627B00DA11D661F829F2227C2
:100B7000B00DA11D621F739FB00DA11D621F839F49
:100B8000A00D611D221F749F3327A00D611D231F1F
:100B9000849F600D211D822F762F6A2F11249F576D
:100BA00050408AF0E1F088234AF0EE0FFF1FBB1F90
:100BB000661F771F881F91505040A9F79E3F51052F
:100BC00070F05CCFA6CF5F3FECF3983EDCF38695E8
:100BD00077956795B795F795E7959F5FC1F7FE2BDA
:100BE000880F911D9695879597F90895EE0FFF1F31
:100BF0000024001C0BBE0790F691E02D0994F89498
:020C0000FFCF24
:100C02000100000020202053696D6F6E205361792E
:100C120073212020204D6F7665206A6F7973746985
:100C2200636B2E0052657065617420616674657233
:100C3200206D652E2020506F696E74733A2000205B
:100C4200202020596F75207472792E2020202020B8
:100C52002020506F696E74733A20005468617420CA
:100C6200697320636F72726563742120506F696EBD
:100C720074733A200020202020596F752077696E06
:100C82002120202020202020506C61792061676182
:100C9200696E210020202053696D6F6E20536179A7
:100CA20073212020204D6F7665206A6F79737469F5
:100CB200636B00596F75204C6F7374203D280020C0
:100CC200202053696D6F6E2053617973212020209B
:100CD200202A50726573732061206B65792A0000A7
:00000001FF
